{
  "_format": "hh-sol-artifact-1",
  "contractName": "Waifu",
  "sourceName": "contracts/Waifu.sol",
  "abi": [
    {
      "inputs": [],
      "stateMutability": "nonpayable",
      "type": "constructor"
    },
    {
      "inputs": [
        {
          "internalType": "string",
          "name": "waifu_name",
          "type": "string"
        }
      ],
      "name": "add_waifu",
      "outputs": [],
      "stateMutability": "nonpayable",
      "type": "function"
    },
    {
      "inputs": [],
      "name": "get_all_waifu_names",
      "outputs": [
        {
          "internalType": "string[]",
          "name": "_waifu_names",
          "type": "string[]"
        }
      ],
      "stateMutability": "view",
      "type": "function"
    },
    {
      "inputs": [],
      "name": "get_all_waifus",
      "outputs": [
        {
          "components": [
            {
              "internalType": "string",
              "name": "detail",
              "type": "string"
            },
            {
              "internalType": "string",
              "name": "url",
              "type": "string"
            },
            {
              "internalType": "bool",
              "name": "exist",
              "type": "bool"
            }
          ],
          "internalType": "struct Waifu.WaifuCollection[]",
          "name": "_waifus",
          "type": "tuple[]"
        }
      ],
      "stateMutability": "view",
      "type": "function"
    },
    {
      "inputs": [],
      "name": "get_total_waifus",
      "outputs": [
        {
          "internalType": "uint256",
          "name": "",
          "type": "uint256"
        }
      ],
      "stateMutability": "view",
      "type": "function"
    },
    {
      "inputs": [
        {
          "internalType": "string",
          "name": "waifu_name",
          "type": "string"
        }
      ],
      "name": "get_waifu_collection_detail",
      "outputs": [
        {
          "internalType": "string",
          "name": "_detail",
          "type": "string"
        }
      ],
      "stateMutability": "view",
      "type": "function"
    },
    {
      "inputs": [
        {
          "internalType": "string",
          "name": "waifu_name",
          "type": "string"
        }
      ],
      "name": "get_waifu_collection_url",
      "outputs": [
        {
          "internalType": "string",
          "name": "_url",
          "type": "string"
        }
      ],
      "stateMutability": "view",
      "type": "function"
    },
    {
      "inputs": [
        {
          "internalType": "string",
          "name": "waifu_name",
          "type": "string"
        },
        {
          "internalType": "string",
          "name": "_detail",
          "type": "string"
        },
        {
          "internalType": "string",
          "name": "_url",
          "type": "string"
        }
      ],
      "name": "set_waifu",
      "outputs": [],
      "stateMutability": "nonpayable",
      "type": "function"
    }
  ],
  "bytecode": "0x60806040523480156200001157600080fd5b506000600381905550620000656040518060400160405280601181526020017f57616966752069732074686520626573740000000000000000000000000000008152506200006b60201b620007fa1760201c565b620001ff565b6200010b8160405160240162000082919062000178565b6040516020818303038152906040527f41304fac000000000000000000000000000000000000000000000000000000007bffffffffffffffffffffffffffffffffffffffffffffffffffffffff19166020820180517bffffffffffffffffffffffffffffffffffffffffffffffffffffffff83818316178352505050506200010e60201b60201c565b50565b60008151905060006a636f6e736f6c652e6c6f679050602083016000808483855afa5050505050565b600062000144826200019c565b620001508185620001a7565b935062000162818560208601620001b8565b6200016d81620001ee565b840191505092915050565b6000602082019050818103600083015262000194818462000137565b905092915050565b600081519050919050565b600082825260208201905092915050565b60005b83811015620001d8578082015181840152602081019050620001bb565b83811115620001e8576000848401525b50505050565b6000601f19601f8301169050919050565b61110f806200020f6000396000f3fe608060405234801561001057600080fd5b506004361061007c5760003560e01c806371d89de71161005b57806371d89de7146100ed578063a8a408c71461011d578063eb058d0c1461013b578063ede2a8da146101575761007c565b8062a24616146100815780631c0bfd791461009f5780634d80c028146100cf575b600080fd5b610089610173565b6040516100969190610d9f565b60405180910390f35b6100b960048036038101906100b49190610a86565b61024c565b6040516100c69190610de3565b60405180910390f35b6100d76102ff565b6040516100e49190610dc1565b60405180910390f35b61010760048036038101906101029190610a86565b61049d565b6040516101149190610de3565b60405180910390f35b610125610550565b6040516101329190610e35565b60405180910390f35b61015560048036038101906101509190610ac7565b61059b565b005b610171600480360381019061016c9190610a86565b61072b565b005b60606002805480602002602001604051908101604052809291908181526020016000905b828210156102435783829060005260206000200180546101b690611009565b80601f01602080910402602001604051908101604052809291908181526020018280546101e290611009565b801561022f5780601f106102045761010080835404028352916020019161022f565b820191906000526020600020905b81548152906001019060200180831161021257829003601f168201915b505050505081526020019060010190610197565b50505050905090565b606060008260405161025e9190610d88565b9081526020016040518091039020600001805461027a90611009565b80601f01602080910402602001604051908101604052809291908181526020018280546102a690611009565b80156102f35780601f106102c8576101008083540402835291602001916102f3565b820191906000526020600020905b8154815290600101906020018083116102d657829003601f168201915b50505050509050919050565b60606001805480602002602001604051908101604052809291908181526020016000905b82821015610494578382906000526020600020906003020160405180606001604052908160008201805461035690611009565b80601f016020809104026020016040519081016040528092919081815260200182805461038290611009565b80156103cf5780601f106103a4576101008083540402835291602001916103cf565b820191906000526020600020905b8154815290600101906020018083116103b257829003601f168201915b505050505081526020016001820180546103e890611009565b80601f016020809104026020016040519081016040528092919081815260200182805461041490611009565b80156104615780601f1061043657610100808354040283529160200191610461565b820191906000526020600020905b81548152906001019060200180831161044457829003601f168201915b505050505081526020016002820160009054906101000a900460ff16151515158152505081526020019060010190610323565b50505050905090565b60606000826040516104af9190610d88565b908152602001604051809103902060010180546104cb90611009565b80601f01602080910402602001604051908101604052809291908181526020018280546104f790611009565b80156105445780601f1061051957610100808354040283529160200191610544565b820191906000526020600020905b81548152906001019060200180831161052757829003601f168201915b50505050509050919050565b60006105936040518060400160405280601781526020017f436f6e7472616374206861766520256420776169667573000000000000000000815250600354610893565b600354905090565b3073ffffffffffffffffffffffffffffffffffffffff1663ede2a8da846040518263ffffffff1660e01b81526004016105d49190610de3565b600060405180830381600087803b1580156105ee57600080fd5b505af1158015610602573d6000803e3d6000fd5b5050505061060e610958565b8281600001819052508181602001819052506001816040019015159081151581525050826000856040516106429190610d88565b9081526020016040518091039020600001908051906020019061066692919061097b565b50816000856040516106789190610d88565b9081526020016040518091039020600101908051906020019061069c92919061097b565b50600181908060018154018082558091505060019003906000526020600020906003020160009091909190915060008201518160000190805190602001906106e592919061097b565b50602082015181600101908051906020019061070292919061097b565b5060408201518160020160006101000a81548160ff021916908315150217905550505050505050565b6000151560008260405161073f9190610d88565b908152602001604051809103902060020160009054906101000a900460ff16151514156107f7576001600360008282546107799190610f5b565b925050819055506002819080600181540180825580915050600190039060005260206000200160009091909190915090805190602001906107bb92919061097b565b5060016000826040516107ce9190610d88565b908152602001604051809103902060020160006101000a81548160ff0219169083151502179055505b50565b6108908160405160240161080e9190610de3565b6040516020818303038152906040527f41304fac000000000000000000000000000000000000000000000000000000007bffffffffffffffffffffffffffffffffffffffffffffffffffffffff19166020820180517bffffffffffffffffffffffffffffffffffffffffffffffffffffffff838183161783525050505061092f565b50565b61092b82826040516024016108a9929190610e05565b6040516020818303038152906040527f9710a9d0000000000000000000000000000000000000000000000000000000007bffffffffffffffffffffffffffffffffffffffffffffffffffffffff19166020820180517bffffffffffffffffffffffffffffffffffffffffffffffffffffffff838183161783525050505061092f565b5050565b60008151905060006a636f6e736f6c652e6c6f679050602083016000808483855afa5050505050565b604051806060016040528060608152602001606081526020016000151581525090565b82805461098790611009565b90600052602060002090601f0160209004810192826109a957600085556109f0565b82601f106109c257805160ff19168380011785556109f0565b828001600101855582156109f0579182015b828111156109ef5782518255916020019190600101906109d4565b5b5090506109fd9190610a01565b5090565b5b80821115610a1a576000816000905550600101610a02565b5090565b6000610a31610a2c84610e81565b610e50565b905082815260208101848484011115610a4957600080fd5b610a54848285610fc7565b509392505050565b600082601f830112610a6d57600080fd5b8135610a7d848260208601610a1e565b91505092915050565b600060208284031215610a9857600080fd5b600082013567ffffffffffffffff811115610ab257600080fd5b610abe84828501610a5c565b91505092915050565b600080600060608486031215610adc57600080fd5b600084013567ffffffffffffffff811115610af657600080fd5b610b0286828701610a5c565b935050602084013567ffffffffffffffff811115610b1f57600080fd5b610b2b86828701610a5c565b925050604084013567ffffffffffffffff811115610b4857600080fd5b610b5486828701610a5c565b9150509250925092565b6000610b6a8383610c7f565b905092915050565b6000610b7e8383610d22565b905092915050565b6000610b9182610ed1565b610b9b8185610f0c565b935083602082028501610bad85610eb1565b8060005b85811015610be95784840389528151610bca8582610b5e565b9450610bd583610ef2565b925060208a01995050600181019050610bb1565b50829750879550505050505092915050565b6000610c0682610edc565b610c108185610f1d565b935083602082028501610c2285610ec1565b8060005b85811015610c5e5784840389528151610c3f8582610b72565b9450610c4a83610eff565b925060208a01995050600181019050610c26565b50829750879550505050505092915050565b610c7981610fb1565b82525050565b6000610c8a82610ee7565b610c948185610f2e565b9350610ca4818560208601610fd6565b610cad816110c8565b840191505092915050565b6000610cc382610ee7565b610ccd8185610f3f565b9350610cdd818560208601610fd6565b610ce6816110c8565b840191505092915050565b6000610cfc82610ee7565b610d068185610f50565b9350610d16818560208601610fd6565b80840191505092915050565b60006060830160008301518482036000860152610d3f8282610c7f565b91505060208301518482036020860152610d598282610c7f565b9150506040830151610d6e6040860182610c70565b508091505092915050565b610d8281610fbd565b82525050565b6000610d948284610cf1565b915081905092915050565b60006020820190508181036000830152610db98184610b86565b905092915050565b60006020820190508181036000830152610ddb8184610bfb565b905092915050565b60006020820190508181036000830152610dfd8184610cb8565b905092915050565b60006040820190508181036000830152610e1f8185610cb8565b9050610e2e6020830184610d79565b9392505050565b6000602082019050610e4a6000830184610d79565b92915050565b6000604051905081810181811067ffffffffffffffff82111715610e7757610e76611099565b5b8060405250919050565b600067ffffffffffffffff821115610e9c57610e9b611099565b5b601f19601f8301169050602081019050919050565b6000819050602082019050919050565b6000819050602082019050919050565b600081519050919050565b600081519050919050565b600081519050919050565b6000602082019050919050565b6000602082019050919050565b600082825260208201905092915050565b600082825260208201905092915050565b600082825260208201905092915050565b600082825260208201905092915050565b600081905092915050565b6000610f6682610fbd565b9150610f7183610fbd565b9250827fffffffffffffffffffffffffffffffffffffffffffffffffffffffffffffffff03821115610fa657610fa561103b565b5b828201905092915050565b60008115159050919050565b6000819050919050565b82818337600083830152505050565b60005b83811015610ff4578082015181840152602081019050610fd9565b83811115611003576000848401525b50505050565b6000600282049050600182168061102157607f821691505b602082108114156110355761103461106a565b5b50919050565b7f4e487b7100000000000000000000000000000000000000000000000000000000600052601160045260246000fd5b7f4e487b7100000000000000000000000000000000000000000000000000000000600052602260045260246000fd5b7f4e487b7100000000000000000000000000000000000000000000000000000000600052604160045260246000fd5b6000601f19601f830116905091905056fea264697066735822122006584a76bfb4e0c851b95ba42ff618c4d06d5cfee3387218c1fdf606c9e53c1b64736f6c63430008000033",
  "linkReferences": {},
  "deployedLinkReferences": {}
}